:020000040800F2
:10000000E80800209101000809180008AD15000853
:100010000518000863050008EF2100080000000033
:10002000000000000000000000000000611D00084A
:100030006D06000800000000351B0008751E000852
:10004000AB010008AB010008AB010008211D00084E
:10005000AB010008AB010008AB010008AB010008D0
:10006000AB010008AB010008AB010008AB010008C0
:10007000AB010008AB010008AB010008AB010008B0
:10008000AB010008AB010008AB010008AB010008A0
:10009000AB010008AB010008AB010008AB01000890
:1000A000AB010008D91E0008AB010008AB01000835
:1000B000AB010008AB010008AB010008AB01000870
:1000C000AB010008AB010008AB010008AB01000860
:1000D000AB010008F12000083D210008AB01000839
:1000E000AB010008AB010008AB01000800F002F80A
:1000F00000F03FF80AA090E8000C82448344AAF183
:100100000107DA4501D100F034F8AFF2090EBAE880
:100110000F0013F0010F18BFFB1A43F0010318473B
:10012000E02C0000002D0000103A24BF78C878C1F0
:10013000FAD8520724BF30C830C144BF04680C60ED
:10014000704700000023002400250026103A28BF35
:1001500078C1FBD8520728BF30C148BF0B60704739
:10016000642900F04B80002070471FB51FBD10B5FB
:1001700010BD00F0BCF91146FFF7F7FF02F040F8A0
:1001800000F0DAF903B4FFF7F2FF03BC00F0E2F984
:100190000948804709480047FEE7FEE7FEE7FEE71B
:1001A000FEE7FEE7FEE7FEE7FEE7FEE70448054957
:1001B000054A064B70470000791E0008ED00000854
:1001C000E8020020E8080020E8040020E8040020FD
:1001D0000FB41CB5084B06AA7B44694600900598ED
:1001E00000F06DF904460020694600F07BF92046D6
:1001F0001CBC5DF814FB0000090300002DE9F04170
:100200000646002410687529314616A510D0AFF3B4
:100210000080002802DA404213A507E031688A070F
:1002200001D512A502E0490704D511A5012401E07A
:10023000AFF3008000210A2206F1240709E0B0FB99
:10024000F2FCB0FBF2F302FB1C003030785418468D
:10025000491C0028F3D123462A463046BDE8F04128
:1002600000F0CFB8000000002D0000002B000000BF
:10027000200000002DE9F05F894604464FF0000A97
:10028000DFF874B1FB44C0F820A02046E16888473D
:10029000002874D0252806D0D4E901219047206A8F
:1002A000401C2062F1E700265F462046E16888474F
:1002B0002028054607DB312D05D2781910F8200CCF
:1002C00008B10643F1E7B00701D526F00406C4F8EB
:1002D0001CA00027C4F818A02A2D09D0284601F038
:1002E00088FF38B304EB8708303DC8F8185019E090
:1002F00059F8041B204604EB87029161E1688847A6
:10030000012F054618D1E069002820DA26F02006E2
:100310001DE0D8F8180000EB800005EB40003038F5
:10032000C8F818002046E1688847054601F061FFDB
:100330000028EED1012F0AD02E2D08D12046E168E9
:1003400088477F1C0546022F46F02006C4DBA069C3
:10035000002803DA404246F00106A061F00701D010
:1003600026F010066C2D0BD0682D09D04C2D39D0FD
:100370006A2D35D0742D35D07A2D33D016E038E083
:10038000E1682F4620468847B842054609D16C2FC0
:1003900026D04FF48060E168064320468847054632
:1003A00004E06C2F1AD04FF4807006430DB3A5F112
:1003B0004100192802D8203546F400664A462946ED
:1003C000204626604E46FFF7CBFE80B101280BD0B9
:1003D000F61D26F0070000F1080956E74020E4E783
:1003E0008020D8E70020D6E706F104094DE728462B
:1003F00052E7206ABDE8F09F662B00007047704707
:1004000070472DE9F0470D4699469246044600F1A3
:1004100024080168880604D5E06921F010012160F4
:1004200000E00120A84201DD471B00E00027A16990
:100430007A1902EB0900081AA0612078C00602D4DC
:100440002046AFF30080002608E0D4E901211AF825
:1004500006009047206A401C761C20624E45F4DB63
:100460002078C0060AD52046AFF3008006E0D4E924
:10047000012130209047206A401C2062381EA7F1DD
:100480000107F4DC07E0D4E9012118F805009047E2
:10049000206A401C2062281EA5F10105F3DC2046DD
:1004A000AFF300802078000602D50220BDE8F08777
:1004B0000120FBE701694A1C02610878704700B51A
:1004C0008FB0CDE901310021059105497944CDE98D
:1004D000031011466846FFF7CDFE0FB000BD0000C7
:1004E000E5FFFFFF0A6802F8010B0A6070477546D6
:1004F00000F02CF8AE4605006946534620F0070090
:10050000854618B020B5FFF751FEBDE820404FF0FA
:1005100000064FF000074FF000084FF0000B21F0ED
:100520000701AC46ACE8C009ACE8C009ACE8C009BA
:10053000ACE8C0098D46704710B50446AFF30080A3
:100540002046BDE81040FFF71DBE00000048704780
:100550008402002001491820ABBEFEE726000200FD
:10056000704700BFFEE7000010B50024002000F037
:1005700049F804E0601CC4B2012000F0C1F84FF457
:1005800080710F4800F09FFF08B1642CF2DB642CEF
:1005900001DB012010BD002404E0601CC4B2012076
:1005A00000F0AEF84FF48071054800F08CFF08B9F8
:1005B000642CF2DB642C01DB0120EBE70020E9E78F
:1005C0000008014008B50121042001F0B5FA4FF4FC
:1005D0008070ADF8000010208DF8030003208DF826
:1005E00002006946064800F0E3FE4FF480710448BB
:1005F00000F074FF00F022F8FFF7B6FF08BD00001E
:100600000008014038B5044654B14FF48070ADF88D
:10061000000003208DF8020010208DF8030006E092
:100620004FF48070ADF8000004208DF80300694697
:10063000014800F0BDFE38BD0008014010B50120A2
:10064000FFF7E0FF4FF48071074800F045FF1420EA
:1006500000F030F84FF48071034800F03FFF0D20A8
:1006600000F04EF810BD0000000801407047000087
:1006700010B56FF0040001F0E9FB0A4800680A4970
:10068000B0FBF1F0094908700846007800EB400122
:10069000C1EBC0104FF6FF7101EAC00004490880A9
:1006A00010BD00003000002000127A004C00002035
:1006B0004E0000200146114A12884A434FF0E023C1
:1006C0005A6100229A611A46126942F001021A61C7
:1006D00000BF4FF0E022106900F001021AB100F4EF
:1006E0008032002AF5D04FF0E022126922F0010298
:1006F0004FF0E0231A6100229A6170474E000020FB
:100700000146114A12784A434FF0E0235A61002211
:100710009A611A46126942F001021A6100BF4FF055
:10072000E022106900F001021AB100F48032002AC0
:10073000F5D04FF0E022126922F001024FF0E023E1
:100740001A6100229A6170474C00002000B58BB0FE
:10075000F84800780F287CD2DFE810F00F00DA00AC
:1007600063012C02B7024503D5036D049C04CB043E
:10077000FA042905500577059E05EF48C0790A213E
:1007800090FBF1F201FB12000A90EB48C07990FB5C
:10079000F1F00990E848807990FBF1F201FB12003A
:1007A0000890E548807990FBF1F00790DDE90812A8
:1007B0000A98CDE900120290DF4880880690024630
:1007C000DEA1E248079BFFF703FDE04A022101207A
:1007D00001F02DF9D84890F902000A2190FBF1F2BE
:1007E00001FB12000A90D44890F9020090FBF1F04E
:1007F0000990D14890F9010090FBF1F201FB120041
:100800000890CD4890F901100A2091FBF0F0079074
:10081000C94890F900000A2190FBF1F201FB120097
:100820000690C54890F9000090FBF1F00590DDE9D5
:100830000723DDE90910CDE90023CDE90210C4A1A9
:10084000C248DDE90523FFF7C3FCC04A03210220AB
:1008500000E0EFE301F0EBF8C1A20021032001F07A
:10086000E6F8C04800880A2190FBF1F201FB120073
:100870000A90BC48008890FBF1F009900246BAA1AA
:10088000B2480A9BFFF7A4FCB04A0221032001F002
:10089000CEF8B7A20821032001F0C9F8B5480088B6
:1008A0000A2190FBF1F201FB12000A90B148018885
:1008B0000A2091FBF0F009900246ABA1A3480A9BE5
:1008C000FFF786FCA14A0A21032001F0B0F8AAA292
:1008D0000021042001F0ABF8A8480288A8A19B4899
:1008E000FFF776FC994A0221042001F0A0F8A6A2A5
:1008F0000821042001F09BF8A4480288A4A1934891
:10090000FFF766FC914A0A21042001F090F869E2A1
:10091000A1A20221012000F0D1FFA2480068052118
:10092000B0FBF1F201FB120000286CD18248C079C3
:100930000A2190FBF1F201FB12000A907E48C07977
:1009400090FBF1F009907C48807990FBF1F201FB7B
:10095000120008907848807990FBF1F00790DDE96B
:1009600008120A98CDE90012029073488088069018
:10097000024672A17548079BFFF72AFC734A0221C1
:10098000084601F054F86C4890F902000A2190FBE7
:10099000F1F201FB12000A90674890F902100A2058
:1009A00091FBF0F00990644890F901000A2190FB56
:1009B000F1F201FB120008905F4890F9010090FBF2
:1009C000F1F007905C4890F9000090FBF1F201FB18
:1009D00012000690584890F9000090FBF1F0059045
:1009E000DDE90723DDE90910CDE90023CDE9021097
:1009F00057A15648DDE90523FFF7EAFB534A0321D7
:100A0000084601F014F8674800680A21B0FBF1F2CB
:100A100001FB120020B964A20221084601F007F888
:100A200075E75DA20221012000F048FF5D480068E3
:100A30000521B0FBF1F201FB120000286CD13E4809
:100A4000C0790A2190FBF1F201FB12000A903A48AA
:100A5000C07990FBF1F009903748807990FBF1F272
:100A600001FB120008903448807990FBF1F0079068
:100A7000DDE908120A98CDE9001202902E4880881C
:100A8000069002462DA13148079BFFF7A1FB2F4A94
:100A90000221084600F0CBFF274890F902000A2106
:100AA00090FBF1F201FB12000A90234890F902102A
:100AB0000A2091FBF0F009901F4890F901000A21EB
:100AC00090FBF1F201FB120008901B4890F9010025
:100AD00090FBF1F00790184890F9000090FBF1F2BC
:100AE00001FB12000690144890F9000090FBF1F011
:100AF0000590DDE90723DDE90910CDE90023CDE903
:100B0000021013A11148DDE90523FFF761FB0F4A2D
:100B10000321084600F08BFF224800680A21B0FB41
:100B2000F1F201FB120020B921A20721022000F0FE
:100B30007EFFD9E3010000207800002025642D25E8
:100B40006425642D25642564000000005800002001
:100B5000256425643A256425643A256425640000EB
:100B6000543A00002200002025642E256443200012
:100B7000483A00001E0000204C3A000026000020E9
:100B800025646C7578200000533A00002A0000208C
:100B9000256470706D202000C9E8D6C3CAB1BCE4DA
:100BA00000000000040000202020202000000000A1
:100BB00020200000AFF220020221012000F07EFE82
:100BC000FE4800680521B0FBF1F201FB120000288D
:100BD0006DD1FB48C0790A2190FBF1F201FB1200B4
:100BE0000A90F748C07990FBF1F00990F4488079B9
:100BF00090FBF1F201FB12000890F14881790A2084
:100C000091FBF0F00790DDE908120A98CDE9001297
:100C10000290EB48808806900246AFF2E001E94876
:100C2000079BFFF7D5FAE74A0221084600F0FFFECE
:100C3000E34890F902000A2190FBF1F201FB120057
:100C40000A90DF4890F9020090FBF1F00990DC482F
:100C500090F9010090FBF1F201FB12000890D848D6
:100C600090F9010090FBF1F00790D54890F9000051
:100C700090FBF1F201FB12000690D14890F90000C0
:100C800090FBF1F00590DDE90723DDE90910CDE9DE
:100C90000023CDE90210AFF24811CA48DDE905236F
:100CA000FFF796FAC74A0321084600F0C0FEC34882
:100CB00000680A21B0FBF1F201FB120020B9AFF28B
:100CC0001012022000F0B3FE0EE3AFF23412022144
:100CD000012000F0F3FDB94800680521B0FBF1F2F6
:100CE00001FB120000286FD1B548C0790A2190FBA2
:100CF000F1F201FB12000A90B148C07990FBF1F0CB
:100D00000990AF48807990FBF1F201FB1200089046
:100D1000AB4881790A2091FBF0F00790DDE90812D9
:100D20000A98CDE900120290A548808806900246F4
:100D3000AFF2F811A348079BFFF74AFAA14A022134
:100D4000084600F074FE9E4890F902000A2190FBCC
:100D5000F1F201FB12000A90994890F9020090FB11
:100D6000F1F00990964890F901100A2091FBF0F2F9
:100D700000FB12100890924890F901000A2190FBA4
:100D8000F1F007908E4890F9000090FBF1F201FB22
:100D9000120006908A4890F9000090FBF1F005904F
:100DA000DDE90723DDE90910CDE90023CDE90210D3
:100DB000AFF264218348DDE90523FFF709FA814A90
:100DC0000321084600F033FE7C4800680A21B0FB8E
:100DD000F1F201FB120028B9AFF22C2203210846E0
:100DE00000F025FE80E2AFF250220221012000F047
:100DF00065FD724800680521B0FBF1F201FB1200AD
:100E0000002871D16E48C0790A2190FBF1F201FBF4
:100E100012000A906A48C07990FBF1F00990684886
:100E200081790A2291FBF2F002FB101008906448CD
:100E3000807990FBF2F00790DDE908120A98CDE97D
:100E4000001202905E48808806900246AFF214318C
:100E50005C48079BFFF7BCF95A4A0221084600F09C
:100E6000E6FD574890F902000A2190FBF1F201FBE0
:100E700012000A90524890F9020090FBF1F009909C
:100E80004F4890F90120084692FBF0F100FB112039
:100E900008904B4890F901000A2190FBF1F007906F
:100EA000474890F90020084692FBF0F100FB112022
:100EB0000690434890F900000A2190FBF1F005905C
:100EC000DDE90723DDE90910CDE90023CDE90210B2
:100ED000AFF284313B48DDE90523FFF779F9394A60
:100EE0000321084600F0A3FD344800680A21B0FB46
:100EF000F1F201FB120028B9AFF24C3206210320B7
:100F000000F095FDF0E1AFF270320221012000F017
:100F1000D5FC2A4800680521B0FBF1F201FB120064
:100F2000002878D12648C0790A2190FBF1F201FB14
:100F300012000A902248C07990FBF1F009902048F5
:100F40008279084692FBF0F100FB112008901C48C2
:100F500080790A2190FBF1F00790DDE908120A98E8
:100F6000CDE9001202901648808806900246AFF242
:100F700034411448079BFFF72BF9124A0221084617
:100F800000F055FD0E4890F902000A2190FBF1F2A5
:100F900001FB12000A900A4890F9020090FBF1F060
:100FA0000990074890F90120084692FBF0F100FBF8
:100FB00011200890024890F9010005E0040000208B
:100FC00078000020580000200A2190FBF1F00790E3
:100FD000C74890F9000090FBF1F201FB1200069067
:100FE000C34890F900100A2091FBF0F00590DDE96C
:100FF0000723DDE90910CDE90023CDE90210AFF2A6
:10100000B041BC48DDE90523FFF7E2F8B94A032106
:10101000084600F00CFDB84800680A21B0FBF1F268
:1010200001FB120028B9AFF278420921032000F039
:10103000FEFC59E157E1B1A20021012000F03EFC85
:10104000AD4800680521B0FBF1F201FB120098B930
:10105000AE48007802460A90022000F0B9FCAC4885
:101060000078024608210A90022000F0B1FCA9A2F3
:101070000721022000F0DBFC9F4800680A21B0FB3A
:10108000F1F201FB120020B9A3A20521022000F019
:10109000CEFC29E1A1A20021012000F00FFC96481E
:1010A00000680521B0FBF1F201FB120098B99748E6
:1010B000007802460A90022000F08AFC94480078EA
:1010C000024608210A90022000F082FC91A207212A
:1010D000022000F0ACFC884800680A21B0FBF1F265
:1010E00001FB120020B991A20721022000F09FFC11
:1010F000FAE08FA20021012000F0E0FB7E480068AA
:101100000521B0FBF1F201FB120098B98C48007880
:1011100002460A90022000F05BFC8A4800780246F2
:1011200008210A90022000F053FC7AA20721022035
:1011300000F07DFC704800680A21B0FBF1F201FB71
:10114000120020B974A20521022000F070FCCBE04F
:101150007DA20021012000F0B1FB67480068052155
:10116000B0FBF1F201FB120098B975480078024615
:101170000A90022000F02CFC7248007802460821F8
:101180000A90022000F024FC62A20721022000F055
:101190004EFC594800680A21B0FBF1F201FB120035
:1011A00020B962A20721022000F041FC9CE06AA263
:1011B0000021012000F082FB4F4800680521B0FBB0
:1011C000F1F201FB120050B96748028867A1494853
:1011D000FEF7FEFF474A0721022000F028FC4648A0
:1011E00000680A21B0FBF1F201FB120028B9AFF24E
:1011F00048620721022000F01AFC75E05DA2002180
:10120000012000F05BFB3C4800680521B0FBF1F2D7
:1012100001FB120050B95B48028854A13548FEF723
:10122000D7FF344A0721022000F001FC3248006851
:101230000A21B0FBF1F201FB120028B9AFF298626B
:101240000721022000F0F3FB4EE04FA20021012015
:1012500000F034FB284800680521B0FBF1F201FBE7
:10126000120050B94C48028840A12248FEF7B0FF56
:10127000204A0721022000F0DAFB1F4800680A21FB
:10128000B0FBF1F201FB120028B9AFF2E4620721D2
:10129000022000F0CCFB27E040A20021012000F05A
:1012A0000DFB154800680521B0FBF1F201FB1200AF
:1012B00050B93E4802882DA10E48FEF789FF0D4A1D
:1012C0000721022000F0B3FB0B4800680A21B0FBA5
:1012D000F1F201FB120028B9AFF2347207210220AB
:1012E00000F0A5FB00E000BF00BF0BB000BD000098
:1012F000780000205800002004000020C9E8D6C370
:10130000B6A8CAB1BFAACABCCAB100000C0000206E
:10131000100000203A00000020203A00C9E8D6C39F
:10132000B6A8CAB1BFAACABCB7D600003A202000EE
:10133000C9E8D6C3B6A8CAB1BDE1CAF8CAB10000AF
:101340001400002018000020C9E8D6C3B6A8CAB10E
:10135000BDE1CAF8B7D60000C9E8D6C3CEC2B6C848
:10136000D7EED0A1D6B500002400002025642020AF
:1013700000000000C9E8D6C3CAAAB6C8D7EEB4F3C5
:10138000D6B5000020000020C9E8D6C3B9E2D5D503
:10139000D7EED0A1D6B5000028000020C9E8D6C3FA
:1013A000D1CCCEEDD7EEB4F3D6B500002C000020A2
:1013B0002DE9F041024600250026002000230024EC
:1013C000002791F803C00CF00F0591F803C00CF052
:1013D000100CBCF1000F03D091F802C04CEA0505D7
:1013E00091F800C0BCF1000F31D0146800202BE050
:1013F0004FF0010C0CFA00F3B1F800C00CEA030640
:101400009E4220D183004FF00F0C0CFA03F7BC432F
:1014100005FA03FC4CEA040491F803C0BCF1280F60
:1014200006D14FF0010C0CFA00FCC2F814C00AE01F
:1014300091F803C0BCF1480F05D14FF0010C0CFA34
:1014400000FCC2F810C0401C0828D1D31460B1F8C9
:1014500000C0BCF1FF0F34DD546800202EE000F125
:10146000080C4FF0010808FA0CF3B1F800C00CEAC0
:1014700003069E4221D183004FF00F0C0CFA03F7B4
:10148000BC4305FA03FC4CEA040491F803C0BCF128
:10149000280F05D100F1080C08FA0CF8C2F81480E6
:1014A00091F803C0BCF1480F07D100F1080C4FF0D0
:1014B000010808FA0CF8C2F81080401C0828CED3A6
:1014C0005460BDE8F0810246002093680B400BB1E8
:1014D000012000E0002070474161704701617047C2
:1014E00008B501211C2000F027FB4FF40050ADF897
:1014F000000010208DF8030003208DF802006946DB
:101500002748FFF755FF4FF400512548FFF7E6FF46
:101510000120ADF8000010208DF8030003208DF8A5
:10152000020069461F48FFF743FF01211D48FFF7EE
:10153000D5FF0220ADF8000010208DF80300032035
:101540008DF8020069461748FFF732FF022115485F
:10155000FFF7C2FF4FF40040ADF8000004208DF803
:10156000030069460F48FFF723FFF020ADF80000A5
:1015700010208DF8030069460B48FFF719FFF02192
:101580000948FFF7A9FF40F60800ADF80000042065
:101590008DF8030069460448FFF70AFF08BD000004
:1015A00000100140000C01400008014000BFFEE7B0
:1015B0000146CA1701EB92729210A1EB820292B916
:1015C000642091FBF0F200FB121050B94FF4C87088
:1015D00091FBF0F200FB121008B9012070470020C7
:1015E000FCE70120FAE70020F8E7000008B5012138
:1015F000082000F0A1FA8020ADF8000048208DF806
:10160000030069461748FFF7D3FE80211548FFF70E
:1016100065FF0121082000F08FFA4FF48070ADF8CB
:10162000000048208DF8030069460E48FFF7C0FE11
:101630004FF480710B48FFF751FF0121082000F0A3
:101640007BFA4FF40070ADF8000048208DF80300DD
:1016500069460448FFF7ACFE4FF400710148FFF7FC
:101660003DFF08BD000C014010B5574A1278002A12
:101670007DD1564A1278002A7AD1554A117850788D
:10168000544A1268C2EB0212534B1B6803EB8202EE
:10169000524B1B68C3EB0313514C246804EB8303C8
:1016A0009A4223DD4D4A1268C2EB02124C4B1B6872
:1016B00003EB8202C1EB011300EB83039A4211DCBE
:1016C000C1EB011200EB8203424A1268C2EB021224
:1016D000414C246804EB8202934203DA0022414B1E
:1016E0001A7038E001223F4B1A7034E0394A126810
:1016F000C2EB0212384B1B6803EB8202374B1B68AC
:10170000C3EB0313364C246804EB83039A4222DABA
:10171000304A1268C2EB02122F4B1B6803EB8202A5
:10172000C1EB011300EB83039A4211DCC1EB011200
:1017300000EB8202294B1B68C3EB0313284C24687F
:1017400004EB83039A4203DA0122264B1A7002E06B
:101750000022244B1A70244A1288244B1B889A4278
:1017600017DD234A12680323B2FBF3F401E018E00B
:1017700028E003FB14222ABB1E4A1268D2431E4BE8
:10178000C3F880211A46D2F88421D243C3F88421B9
:1017900018E00122174B1A600022174BC3F884216E
:1017A00010E00122134B1A600022134BC3F884216E
:1017B000124B1A60114B0C331A601B1F1A60104B2E
:1017C000C3F8942110BD0000010000201C0000207F
:1017D000780000200C0000201000002014000020E1
:1017E00018000020090000202A0000202C00002002
:1017F000040000208081214200802142900121428A
:101800000000214200BFFEE770470000024901438B
:10181000024A1160704700000000FA050CED00E07C
:1018200000BF011EA0F10100FBD1704700B50120EF
:101830000B4908601420FFF7F3FF01200949C1F8A4
:1018400098011420FFF7ECFF00200549091D0860EE
:101850001420FFF7E5FF00200249C1F8940100BD04
:10186000948121420080214200B500200749086090
:101870001420FFF7D5FF01200549C1F89401142079
:10188000FFF7CEFF01200149086000BD9881214289
:101890000080214270B505460C4605F1B001C8B282
:1018A00000F028F9102141EA141000F023F904F0A7
:1018B0000F0141F0010000F01DF970BD2DE9F0416C
:1018C000074688461646781E4006070E4FEA0870FF
:1018D0004FEA106846E000253CE005EB051024497E
:1018E00011F810003178884232D105EB05102049FB
:1018F00001EB400040787178884229D14146384652
:10190000FFF7C8FF00240AE005EB0511184A02EBB7
:101910004101891C085D00F0FDF8601CC4B2102C68
:10192000F2DB791CC8B24146FFF7B4FF00240CE09B
:1019300005EB05110E4A02EB4101891C04F110026E
:10194000885C00F0E7F8601CC4B2102CF0DB03E008
:10195000681CC5B2322DC0DB00BFB61C08F11000F8
:1019600000F0FF0830780028B5D1BDE8F081000014
:10197000B82900082DE9F04106468846174600259B
:101980000024A7F1200541463046FFF783FF00BF42
:1019900006E004EB05110D4A505C00F0BBF8641C36
:1019A000082CF6D3711CC8B24146FFF773FF002420
:1019B00007E004EB05110831044A505C00F0AAF876
:1019C000641C082CF5D3BDE8F0810000C823000892
:1019D0002DE9F04105460C461646681E4006050EE8
:1019E000E006040E0A2096FBF0F00A2190FBF1F2CB
:1019F00001FB120000F130073A4621462846FFF766
:101A0000B9FF04F10800C4B2782C02DD0024A81C40
:101A1000C5B20A2096FBF0F100FB116000F130071F
:101A20003A4621462846FFF7A5FFBDE8F0812DE99B
:101A3000F04105460C4616460027681E4006050E76
:101A4000E006040E0DE0F25D21462846FFF792FF06
:101A500004F10800C4B2782C02DD0024A81CC5B231
:101A60007F1CF05D0028EED1BDE8F08170B5044622
:101A700000251EE004F0800018B101201A4908601A
:101A800002E00020184908601420FFF7C9FE012079
:101A90001549091F08601420FFF7C2FE00201349F2
:101AA000C1F894011420FFF7BBFE6006040E681C09
:101AB000C5B2082DDEDB01200B4908601420FFF7BA
:101AC000AFFE01200949C1F894011420FFF7A8FED8
:101AD00020210748FFF7F7FC064600200249091FAE
:101AE0000860304670BD000098812142008021428C
:101AF000000C014010B50446FFF798FE7820FFF770
:101B0000B5FF0020FFF7B2FF2046FFF7AFFFFFF75A
:101B1000ABFE10BD10B50446FFF788FE7820FFF736
:101B2000A5FF4020FFF7A2FF2046FFF79FFFFFF72A
:101B30009BFE10BD7047000029B1064A926902431E
:101B4000044B9A6104E0034A92698243014B9A6113
:101B50007047000000100240024909888143014A91
:101B6000118070470428004070B50026002400252D
:101B700000F07EF806463A48B6FBF0F43948008893
:101B8000A0423CD037490C8040F2B27510E02846A4
:101B9000FFF70EFD40B1B4F5B77F02D3A4F5B774DB
:101BA00004E0681C85B206E0A4F26D14681C85B2DE
:101BB000B4F5B67FEBD800BF2B488580002516E032
:101BC00029498888FFF7F4FC30B1012D04D11D2C80
:101BD00001D31D3C09E00CE02448405DA04203D83D
:101BE0002248405D241A00E003E0681C85B21C2CEA
:101BF000E6D200BF681C1C498871601CC871184877
:101C0000B6FBF0F100FB11644FF46160B4FBF0F03F
:101C100040B2154908704FF46160B4FBF0F100FB6D
:101C200011403C21B0FBF1F040B20F4948704FF435
:101C30006160B4FBF0F100FB11403C21B0FBF1F21C
:101C400001FB120040B2084988700B46DA79997995
:101C5000988800F029F804490872002070BD00003F
:101C6000805101004400002078000020E22D00088F
:101C7000002103480188001F008841EA00407047A6
:101C80001C28004001460020064A12880A40D0B2B3
:101C9000044A121F12880A4012B108B1012000E064
:101CA0000020704704280040F0B503460C46154656
:101CB000642093FBF0F0C6B2642093FBF0F700FBC6
:101CC0001730C1B2132E02DD01F16400C1B2084623
:101CD000CF1701EB977701EBA707BAB2072092FB6A
:101CE000F0F700FB172082B25719601EDFF82CC0F6
:101CF0001CF80000384482B2CF1701EB9777BF1071
:101D0000A1EB87071FB9032C01DA501E82B207200E
:101D100092FBF0F700FB1720C0B2F0BDD62D0008F3
:101D200010B50120FFF7AEFF08B1FFF71DFF02203D
:101D3000FFF7A8FF20B10220FFF70EFFFFF714FF07
:101D40000520FFF709FF00F001F810BD00BF0348B0
:101D5000008800F020000028F9D0704704280040D7
:101D6000704710B500F002F810BD00000CB500205F
:101D7000019000903348006840F480303149086099
:101D800000BF3048006800F4003000900198401C0B
:101D90000190009818B90198B0F5A06FF1D12948C9
:101DA000006800F4003010B10120009001E0002034
:101DB00000900098012843D12348006840F01000AB
:101DC000214908600846006820F0030008600846C2
:101DD000006840F0020008601A48406819494860ED
:101DE0000846406848600846406840F480604860A3
:101DF0000846406820F47C1048600846406840F47B
:101E0000E81048600846006840F08070086000BF35
:101E10000C48006800F000700028F9D009484068BC
:101E200020F00300074948600846406840F002007F
:101E3000486000BF0348406800F00C000828F9D152
:101E40000CBD00000010024000200240042808D110
:101E50004FF0E021096941F004014FF0E0221161E7
:101E600007E04FF0E021096921F004014FF0E02282
:101E7000116170477047000010B51348006840F0CA
:101E800001001149086008464068104908400E49A1
:101E90004860084600680E4908400B49086008463B
:101EA000006820F4802008600846406820F4FE00A6
:101EB00048604FF41F008860FFF753FF4FF0006049
:101EC0000449086010BD0000001002400000FFF847
:101ED000FFFFF6FE08ED00E070B50121714800F04B
:101EE000F6F8002878D001216E4800F0EDF86E4930
:101EF0000888C11700EB5171C910A0EBC101082976
:101F00007AD2DFE801F00412202F3E4D5B6A0120F7
:101F10006649086000206649C1F8B801634908397C
:101F200008606349C1F8B00166E001205F490860BC
:101F30005F49C1F8B80100205C49083908605C4974
:101F4000C1F8B00158E00020584908600120584904
:101F5000C1F8B80100205549083908605449C1F852
:101F6000B00149E000205149086001205049C1F802
:101F7000B8014E490839086000204D49C1F8B00148
:101F80003AE00020494908604949C1F8B8010120F8
:101F900046490839086000204549C1F8B0012BE0E6
:101FA0000020424908604249C1F8B80101203F4978
:101FB000083908603E49C1F8B0011DE000203B49E6
:101FC00008603B49C1F8B801384908390860012068
:101FD0003749C1F8B0010FE02DE001203349086016
:101FE00000203349C1F8B8013049083908600120A0
:101FF0002F49C1F8B00100BF00BF2E48007801286A
:1020000021D12D480078401C2B49087008460078E3
:10201000002845DD002008702348008800F036F9CC
:1020200004460022254B00F045F905D21E480088E1
:10203000401C1D49088033E000201E490870012023
:102040001F4908702CE01F48007801281AD11A484F
:102050000078401C184908700846007800281FDDE9
:102060000020087010480088002805DD0E48008810
:10207000401E0D49088013E00020124908701049E5
:1020800008700DE000200C490870084908600849F4
:10209000C1F8B8010549083908600549C1F8B0011F
:1020A00070BD0000002C01404A000020BC8121428C
:1020B0000080214246000020490000200000A0408E
:1020C0004800002047000020CA430282704730B514
:1020D0000246002000230024158A05EA01039589A1
:1020E00005EA010413B10CB1012000E0002030BD6D
:1020F00010B540F225510E4800F04FF8B0B10D4830
:102100000088FF2802D900200A4908800848001DDD
:102110000088C1B2074802880088401C054B18801F
:10212000054881542021024800F02EF810BD00001F
:1021300000380140500000208200002010B540F21D
:1021400025510E4800F029F8B0B10D480088FF284D
:1021500002D900200A4908800848001D0088C1B241
:10216000074802880088401C054B188005488154A8
:102170002021024800F008F810BD00000044004093
:10218000540000208201002001F40072B2F5007FAB
:1021900000D100BFCA430280704770B502460024D8
:1021A00000230025002040F66A16B14200D100BF8E
:1021B000C1F3421501F01F03012606FA03F3012DB6
:1021C00002D19689334006E0022D02D1168A3340AF
:1021D00001E0968A33400C12012606FA04F41688B0
:1021E000344013B10CB1012000E0002070BD00BFED
:1021F000FEE730380A2801D20120704700207047DE
:102200004FF4A060FFF702FBFEF732FAFFF768F920
:10221000FFF7ECF900BFFEF7D5F90028FBD122E06B
:10222000FEF794FAFFF720FA0F480068401C0E49A9
:1022300008600A20FEF73EFA0B4800680A21B0FB4E
:10224000F1F201FB120028B908480068C0430849B0
:10225000C1F8B4010448006841F28831884202D3D1
:10226000002001490860DBE704000020B40122429D
:1022700000002242491058BFC1F140415B1058BFD5
:10228000C3F140438B42EFF300807047B0FA80F314
:1022900010FA03F10AD0C3F11D0303F580634FEA7E
:1022A00041504FEA035202EBD12170474FF000003A
:1022B0007047000051EA030C17D41CF5801F58BF6B
:1022C000BCF5801F00F10680994218BF704708BF17
:1022D0009042704707D711F5801F58BF13F5801F34
:1022E00019D499427047894270471CF5801F08D560
:1022F000BCF5801FF7D58B4218BF704708BF8242DC
:1023000070474FF4001C1CEB410F38BF1CEB430F10
:1023100001D28B42704770B500F008F89224490052
:102320004FF000514FF08053FFF7A4BF0EF1020EA3
:102330002EF0030E5EF8046B364205D4012A43EBFF
:10234000030515F5001F12D8012841EB010C1CF5FF
:10235000001F0CD80ED14FEAD17C15F5001F0CEBF5
:102360004C0C0CF1020C08BF4CEBD37C04E04FF09A
:10237000080C01E04FEAD37C0CEB4C0526FA05F67D
:1023800006F00706B6F1040C06D20EEB860CBDE88B
:1023900070404CF0010C6047DFE80CF0090B0202C2
:1023A0004FF000414FF00000A1F5002170BD19462B
:1023B0001046012851EB010418BFD4F5001484BF66
:1023C000002001F0004170BD00000000000000008E
:1023D0000000000000000000000000F80000000005
:1023E000000000333000000000100C06100C060046
:1023F000000000000000000040C07840C0784000AD
:10240000043F04043F040400007088FC083000000E
:10241000001820FF211E0000F008F000E018000066
:1024200000211C031E211E0000F00888700000001F
:102430001E2123241927211010160E000000000071
:102440000000000000000000000000E0180402008E
:10245000000000071820400000020418E0000000FF
:102460000040201807000000404080F080404000FD
:102470000202010F01020200000000F00000000053
:102480000101011F01010100000000000000000027
:1024900080B070000000000000000000000000009C
:1024A0000001010101010101000000000000000025
:1024B00000303000000000000000000080601804C0
:1024C000006018060100000000E010080810E0009D
:1024D000000F102020100F00001010F80000000066
:1024E0000020203F202000000070080808887000AD
:1024F000003028242221300000300888884830002D
:102500000018202020110E000000C02010F800004C
:1025100000070424243F240000F8088888080800E5
:102520000019212020110E0000E0108888180000FA
:10253000000F112020110E0000380808C8380800CC
:102540000000003F0000000000708808088870004C
:10255000001C222121221C0000E010080810E000CD
:102560000000312222110F00000000C0C000000056
:10257000000000303000000000000080000000007B
:102580000000806000000000000080402010080073
:10259000000102040810200040404040404040003C
:1025A0000404040404040400000810204080000017
:1025B0000020100804020100007048080808F0001C
:1025C0000000003036010000C030C828E810E000EC
:1025D0000718272423140B000000C038E000000077
:1025E000203C23020227382008F8888888700000E1
:1025F000203F202020110E00C030080808083800B5
:10260000071820202010080008F808080810E0002B
:10261000203F202020100F0008F88888E8081000CC
:10262000203F20202320180008F88888E8081000A0
:10263000203F200003000000C030080808380000D8
:1026400007182020221E020008F808000008F808D9
:10265000203F210101213F20000808F80808000060
:102660000020203F2020000000000808F808080093
:10267000C08080807F00000008F888C0281808000B
:10268000203F20012638200008F808000000000044
:10269000203F20202020300008F8F800F8F808003B
:1026A000203F003F003F200008F830C00008F80835
:1026B000203F200007183F00E01008080810E00045
:1026C0000F10202020100F0008F808080808F0005C
:1026D000203F210101010000E01008080810E0007F
:1026E0000F18242438504F0008F888888888700014
:1026F000203F2000030C30200070880808083800B4
:102700000038202121221C00180808F808081800A9
:102710000000203F2000000008F808000008F8082A
:10272000001F202020201F000878880000C83808DB
:10273000000007380E010000F80800F80008F80053
:10274000033C0700073C03000818688080681808ED
:1027500020302C03032C30200838C800C83808006B
:102760000000203F2000000010080808C8380800BA
:102770002038262120201800000000FE020202005E
:102780000000007F40404000000C30C0000000000E
:10279000000000010638C00000020202FE00000036
:1027A000004040407F0000000000040202020400DC
:1027B0000000000000000000000000000000000019
:1027C0008080808080808080000202040000000001
:1027D00000000000000000000000808080800000F9
:1027E0000019242222223F2008F8008080000000E7
:1027F000003F112020110E000000008080800000AA
:10280000000E112020201100000000808088F800B8
:10281000000E112020103F200000808080800000EA
:10282000001F222222221300008080F0888888184E
:102830000020203F20200000000080808080800059
:10284000006B94949493600008F8008080800000EE
:10285000203F210000203F200080989800000000C9
:102860000020203F202000000000008098980000F9
:1028700000C08080807F000008F800008080800019
:10288000203F24022D302000000808F8000000003E
:102890000020203F202000008080808080808000F9
:1028A000203F20003F20003F80800080808000008B
:1028B000203F210000203F20000080808080000019
:1028C000001F202020201F0080800080800000004A
:1028D00080FFA12020110E00000000808080800079
:1028E000000E112020A0FF8080808000808080006A
:1028F00020203F2120000100000080808080800097
:102900000033242424241900008080E0808000000B
:102910000000001F20200000808000000080800058
:10292000001F202020103F208080800000808080B9
:1029300000010E3008060100808000800080808049
:102940000F300C030C300F0000808000808080006E
:102950000020312E0E312000808080000080808099
:1029600080818E7018060100008080808080800049
:102970000021302C2221300000000000807C020267
:1029800000000000003F404000000000FF00000089
:1029900000000000FF0000000002027C8000000038
:1029A0000040403F00000000000601010202040454
:1029B0000000000000000000CEC21060028C000089
:1029C000FE9292929292FE00000004047E01407EEC
:1029D00042427E427E42427E4000CAAA1060028C81
:1029E00000FE929292929292FE00000004047E01F8
:1029F0004448507F40407F5048444000B6C80000E3
:102A0000FC242424FC252624FC2424240400403017
:102A10008F80844C55252525554C80808000B9E257
:102A20004040424458C0407F40C05048464040006B
:102A30008080402018070000003F40404040780060
:102A4000D5D500FE424242FE0042A29E82A2C2BEF4
:102A50000000806F080828CF00002FC8080828CF82
:102A60000000D1CC807000FF1008FE424242FA42C2
:102A70004242FE00806018070810FF50484641425D
:102A80004C40FF00CEED100C055555D5057F055582
:102A9000555505140C001010108AA96B352525AB6F
:102AA000E90810101000C9E8404042CC0040A09E48
:102AB0008282829EA02020000000003F9088404338
:102AC0002C10284641808000D6C3001715D55557D5
:102AD000557D555755D5151700004040407F555539
:102AE00055555555557F40404000B5B100404244D2
:102AF0005840407F40405048C600000000404444D9
:102B00004444444444444444FF000000C7B008081F
:102B1000E8292E28E80808C80C0BE808080000007F
:102B2000FF0949897F00000F40807F000000CAB183
:102B300000FC848484FC001010101010FF101000A2
:102B4000003F1010103F0000010640807F00000091
:102B5000BCE400F8010600F0121212F2020202FEBA
:102B6000000000FF0000001F1111111F0040807FB6
:102B70000000BFAA80828282FE8282828282FE82DE
:102B800082828000008040300F0000000000FF00C3
:102B900000000000CABC1010F01F10F00040E05808
:102BA00047405060C0004022150816210000FE4238
:102BB000424242FE0000B6A8100C4444444445C6BC
:102BC0004444444444140C008040201E2040407F74
:102BD0004444444444404000B7D680402090888616
:102BE000808080838C102040800000804020180767
:102BF000004080403F0000000000BDE12030AC6399
:102C00002018084848487F48484808002267221290
:102C1000121200FE4242424242FE0000CAF8040480
:102C2000E424242424FF24242424E4040400404035
:102C30002722120A06FF060A122227404000D7EE7A
:102C40004040C05F5555D5555555555F40404000F3
:102C500020603F251515FF904729112D43808000E6
:102C6000B4F320202020202020FF2020202020201E
:102C7000200080804020100C0300030C10204080B6
:102C80008000D0A1000000E0000000FF0000002054
:102C900040800000080403000040807F0000000026
:102CA00000010E00D6B5008060F80704E4A4A4BFBC
:102CB000A4A4E4040000010000FF40407F4A4A4A07
:102CC0004A4A7F404000A3BA000000000000000014
:102CD0000000000000000000000036360000000088
:102CE0000000000000000000C4A31010D0FF9014EA
:102CF000E4AFA4A4A4AFE4040000040300FF00892F
:102D00004B2A1A0E1A2A4B888000CABD10109090C8
:102D10009090901010FF10101116100000206020ED
:102D20003F10101000030C102040F800BFAA808252
:102D30008282FE8282828282FE8282828000008083
:102D400040300F0000000000FF0000000000B9D874
:102D500000001011161010F01010141310000000D5
:102D60008181414121110D030D11214141818100DA
:102D7000D7D4000000F8888C8A89888888F80000F9
:102D80000000000000FF44444444444444FF000069
:102D90000000B6AF4044C4444444401010FF10103B
:102DA00010F00000103C131014B840300E014080A9
:102DB000403F0000CAD600002424242424FC222200
:102DC000222322000000020202020242827F02024B
:102DD00002020202020000030306010406020500CB
:102DE00003051F1C1F1E1F1E1F1F1E1F1E1F04006A
:102DF00000080000000000000002000100001000B8
:102E0000202E0008000000205800000028010008C3
:102E1000782E0008580000209008000044010008A7
:102E2000000000000000000000000000160000008C
:102E3000000000000600000000000000000000008C
:102E40003C0000000A0000003200000050000000BA
:102E500000A24A0400000000000000000102030478
:102E60000607080900000000000000000000000044
:082E700000000000000000005A
:04000005080000ED02
:00000001FF
